:100000000C949A040C94B7040C94B7040C94B704A1
:100010000C94B7040C94B7040C94B7040C94B70474
:100020000C94B7040C94B7040C9447110C9403116E
:100030000C94BD190C94B7040C94B7040C94B70439
:100040000C94B7040C94B7040C94B7040C94B70444
:100050000C94B7040C941F120C94B7040C94B704BE
:100060000C94B7040C94B7040C94B7040C94B70424
:100070000C94B7040C94B7040C94B7040C94B70414
:100080000C94B7040C94B7040C94B7040C94B70404
:100090000C94B7040C94B7040C94B7040C94B704F4
:1000A0000C94B7040C94B7040C94B704076342365D
:1000B000B79BD8A71A39685618AEBAAB558C1D3CF9
:1000C000B7CC5763BD6DEDFD753EF6177231BF00BD
:1000D0000000803F08000000BE922449123EABAAF7
:1000E000AA2ABECDCCCC4C3E00000080BEABAAAA52
:1000F000AA3E00000000BF000000803F000000009A
:1001000000084178D3BB4387D1133D190E3CC3BDD2
:100110004282AD2B3E68EC8276BED98FE1A93E4C7F
:1001200080EFFFBE01C4FF7F3F0000000000417E62
:1001300000DA0281FFD9F1DB20A4A62EAF00A0C017
:10014000D30000A1C8D30000AED580A81F408D14F5
:100150002000333435363700232425260027222279
:100160002A002B22222E002F30313200222222267A
:10017000002222222A002222222E002222223200C3
:1001800022242526002228292A002B2C2D22002F6C
:100190003031220022242526002228292A00222C60
:1001A0002D2E00223031320023222226002728293A
:1001B0002A00222C2D2E0022222232002324252246
:1001C000002728292200222C2D2E00223031320037
:1001D000232425220027282922002B2C2D2E002F16
:1001E0003031320022242526002222222A00222217
:1001F000222E00222222320023242526002728290D
:100200002A002B2C2D2E002F3031320023242526BE
:10021000002728292A00222C2D2E002230313200DE
:100220002222222200222222220022222222002214
:10023000222222000001010101010101010102024B
:100240000202020202020203030303030303030484
:10025000040404040404050505050506060606064F
:10026000070707070708080808090909090A0A0A09
:100270000B0B0B0C0C0C0D0D0D0E0E0E0F0F0F10AB
:100280001011111112121313141415151616171735
:10029000181819191A1A1B1B1C1D1D1E1E1F2020A1
:1002A000212222232424252626272829292A2B2CEB
:1002B0002D2D2E2F30313232333435363738393A0E
:1002C0003B3C3D3E3F404142434445464748494A06
:1002D0004C4D4E4F50515354555658595A5B5D5ED4
:1002E0005F616264656668696B6C6D6F707273756F
:1002F00077787A7B7D7E8082838587888A8C8E8FD3
:1003000091939596989A9C9EA0A2A3A5A7A9ABAD00
:10031000AFB1B3B5B7BABCBEC0C2C4C6C9CBCDCFEE
:10032000D1D4D6D8DBDDDFE2E4E7E9EBEEF0F3F59C
:10033000F8FAFDFF00AF00AE05010906A1010507AF
:1003400019E029E71500250195087501810295013D
:10035000750881010507190029FF150026FF009582
:100360000675088100050819012905950575019193
:1003700002950175039101C009022200010100A04C
:10038000FA09040000010301010009211101000123
:10039000224000070581030800011201000200004D
:1003A00000088408950800010102000118034300B9
:1003B0004F00320020004D006F006E006900740095
:1003C0006F00720000001003680061007900610096
:1003D00073006800690000000403090400000000C5
:1003E000000000000000000000000000000000000D
:1003F00000000000000000000000000000000000FD
:1004000000000000000000000000000000000000EC
:1004100000000000000000000000000000000000DC
:1004200000000000000000000000000000000000CC
:1004300000000000000000000000000000000000BC
:1004400000000000000000000000000000000000AC
:10045000000000000000000000000000000000009C
:10046000000000000000000000000000000000008C
:10047000000000000000000000000000000000007C
:10048000000000000000000000000000000000006C
:10049000000000000000000000000000000000005C
:1004A000000000000000000000000000000000004C
:1004B000F0F8F8F0060F0F0F0F0F0F0F0F0F0F06CA
:1004C000F0F8F8F0000000003F7F7F3F80C0C0C020
:1004D000C0C0C0C0C0C0C0803F7F7F3F00000000E0
:1004E000FCFEFEFC010303030303030303030301F8
:1004F000FCFEFEFC000000000F1F1F0F60F0F0F07C
:10050000F0F0F0F0F0F0F0600F1F1F0F000000009F
:100510000082FFFF33333F1E000082FFFF33333F73
:100520001E000082FFFF0CFCFC0CFCFC0000000025
:100530000000464949291E00000014000000004048
:100540003400000000081422410014141414140094
:100550000041221408000201590906003E415D597C
:100560004E007C1211127C007F49494936003E4101
:10057000414122007F4141413E007F4949494100BC
:100580007F09090901003E41415173007F080808B5
:100590007F0000417F4100002040413F01007F0873
:1005A000142241007F40404040007F021C027F0037
:1005B0007F0408107F003E4141413E007F09090948
:1005C00006003E4151215E007F0919294600264957
:1005D0004949320003017F0103003F4040403F0092
:1005E0001F2040201F003F4038403F006314081484
:1005F00063000304780403006159494D4300007F00
:1006000041414100020408102000004141417F00A7
:10061000040201020400404040404000000307087B
:1006200000002054547840007F2844443800384467
:1006300044442800384444287F0038545454180057
:1006400000087E09020018A4A49C78007F08040416
:10065000780000447D4000002040403D00007F10B5
:100660002844000000417F4000007C0478047800AA
:100670007C0804047800384444443800FC182424DE
:10068000180018242418FC007C08040408004854AE
:100690005454240004043F4424003C4040207C0087
:1006A0001C2040201C003C4030403C0044281028C6
:1006B00044004C9090907C004464544C44000008EA
:1006C00036410000000077000000004136080000BD
:1006D0000201020402003C2623263C000000000028
:1006E0000000404040F0F8F8FF38FFF8F83FF8F815
:1006F000FF38FFF8F8F040404000000000000080A4
:10070000C0C0C0800000C0C08000000080C0C00029
:10071000C0C0000080C0C00000000000C0C0C0C059
:10072000C000C0C000000000000000000000000089
:1007300000000000000000000000000000000000B9
:1007400000000000000000000000000000000000A9
:100750000000000000000000000000C0F0F8FC3EB7
:100760001E06010000007F4141417F007F41414161
:100770007F000080C0E07E5B4F5BFEC00000C000D9
:10078000DCD7DEDEDED7DC00C000000000000000A9
:100790000000000000000000000000000000000059
:1007A0000000494949FFFFFFFFE0DFBFBF00BFBFB7
:1007B000DFE0FFFFFFFF49494900000000001F3F45
:1007C0006060E0BF1F007F7F071E381E077F7F002D
:1007D0007F7F0E1F3B716000000000007F7F0C0CCC
:1007E0000C007E7E007F7E0303007F7E03037E7EFF
:1007F00003037F7E000F3E703C063C703E0F0032CC
:100800007B49493F7E007F7E0303001E3F69696F7D
:100810002600000000000000000000030F1F3F3C06
:100820007870600000007F4141417F007F4141417D
:100830007F00307B7F7830202030787F3B000300C2
:100840000F7F0F0F0F7F0F0003000000000000005C
:100850000000000000000000000000000000000098
:100860000000010101070F0F7F0F7F0F0F7E0F0F99
:100870007F0F7F0F0F070101010000000000000043
:100880000000000101000000000000000000000066
:100890000000000000000000000000000000000058
:1008A0000000000000000000000000000000000048
:1008B0000000000000000000000000000000000038
:1008C0000000000000000000000000000000000028
:1008D0000000000000000000000000000000000018
:1008E0000000000000000000000000000000000008
:1008F00000000000000000000000000000000000F8
:1009000000000000000000000000000000000000E7
:1009100000000000000000000000000000000000D7
:1009200000000000000000000000000000000000C7
:100930000000000011241FBECFEFDAE0DEBFCDBF04
:1009400011E0A0E0B1E0E2EFF9E402C005900D9201
:10095000A235B107D9F725E0A2E5B1E001C01D92AB
:10096000A83BB207E1F70E94E4190C94A3240C946D
:1009700000009091AD03899FC0011124811522E0F0
:10098000920714F090E080E080559C4F9093B7055B
:100990008093B6050895482F2091A9039091700384
:1009A00057E0291302C080E0089530E0529FF00123
:1009B000539FF00D1124EF58FC4F8181681306C03E
:1009C0008081481303C085818111EECF2F5F3F4F97
:1009D0002770E7CF982F9093E900891779F050910D
:1009E000EC002091ED004091F00021FD0AC09F5FD6
:1009F000973089F78093E90081E00895562F40E011
:100A000022E03091EB003E7F3093EB003091ED001F
:100A10003D7F3093ED003091EB0031603093EB007F
:100A20005093EC002093ED004093F0002091EE00F5
:100A300027FDDDCF80E00895E8EDF0E080818E7F36
:100A400080831092E2001092DA001092E100A0EE92
:100A5000B0E08C9181608C9380818F77808319BC0A
:100A6000A7EDB0E08C918E7F8C9380818F7E808308
:100A7000109251030895B0E0A0E0E1E4F5E00C9499
:100A8000F01FC8EDD0E088818F7E8883E7EDF0E02D
:100A900080818160808384E082BF81E08093510304
:100AA00088818E7F888302EE10E0F8011082109218
:100AB000DA0081EEC82ED12CF601108288818F7762
:100AC000888388818068888388818F7D888319BC2A
:100AD0001092670310925E0310925D0310925C0304
:100AE00090EEE92EF12CF70180818B7F8083888145
:100AF0008160888360E080E00E94EA04F6018081E2
:100B00008E7F8083F801808181608083808188600E
:100B10008083F70180818E7F8083888180618883D4
:100B2000CDB7DEB7E8E00C940C202091E4003091C2
:100B3000E50095E6A9012091EC00822F817020FF4D
:100B400006C08091E80080FF06C080E008952091F3
:100B5000E80022FD1AC080916703882389F0853060
:100B600089F08091EB0085FD0FC02091E400309169
:100B7000E50042175307F9F29150E1F684E0089539
:100B800082E0089583E0089581E0089580915F03F5
:100B900087FF13C08091E80082FF06C08091E800C3
:100BA0008B778093E80004C0809167038111F2CFB6
:100BB0000895809167038823D9F38091E80080FF2E
:100BC000F8CF8091E8008E77ECCFFC01809165032F
:100BD0009091660386179707A0F06115710529F4B7
:100BE0009091E8009E779093E80090E06115710580
:100BF00051F4911108C08091E80082FF34C080E078
:100C00000895BC01F2CF809167038823C1F185303C
:100C1000C1F18091E80083FD30C08091E80082FD41
:100C2000EACF8091E80080FFE1CF8091F30020912E
:100C3000F200382F6115710519F02830310558F090
:100C400091E02830310509F090E02091E8002E77FE
:100C50002093E800CBCF81918093F100615071091E
:100C60002F5F3F4FE7CF80916703882341F08530A6
:100C700041F08091E80083FFBECF81E0089582E0DB
:100C8000089583E008950895089580915303089589
:100C900087E797E7909301088093000888E19AE03E
:100CA0000FB6F894A895809360000FBE90936000F3
:100CB000FFCF2FB7F89460914D0370914E03809150
:100CC0004F03909150032FBF08959C01FC01329671
:100CD0009FEF80E04191461751F09F3F19F4411179
:100CE00001C0982F8F5F8630A9F79F3F09F40895C0
:100CF000290F311D97FD3A95F90162830895E0911E
:100D00004A03F0914B03309729F00190F081E02DD8
:100D10000995089580E00895FA01811101C0FB0151
:100D20000995089580913C03982F9E7F71F48091DE
:100D30003C038170826080933C0380913F03823E3C
:100D400018F081EE80933F030895843080F7F5CF4B
:100D500080E008959091770192FF06C0282F2871B6
:100D60002830F9F4877F846093FF06C0282F28710C
:100D70002831F1F4877E84612091780120FF06C03C
:100D8000382F38713830D9F4877F816021FF06C051
:100D9000282F28712831D1F4877E816194FD877EC8
:100DA0000895282F24712430F9F68B7F8860DCCFDA
:100DB000282F2471243101F78B7E8861DDCF382FF5
:100DC0003171313019F78E7F8860E0CF282F217183
:100DD000213121F78E7E8861E1CF82389105B9F10A
:100DE000B0F48133910509F47DC048F4893291054E
:100DF00009F46DC08A32910509F47BC008958533EA
:100E0000910509F45FC08933910509F10895833E86
:100E10009105D9F138F4803E910529F1823E910582
:100E200079F10895863E9105D9F1873E910509F43F
:100E30003EC0843E910541F52091780121FF24C0F8
:100E40008091770184FD19C087EE90E0089520918C
:100E50007701237009F05AC02091780123FF14C054
:100E600089E290E008952091770120FD38C030910B
:100E7000780130FF09C024FF43C090E080E008956E
:100E80002091770122FDF7CF08952091770122FD6F
:100E90003AC03091780130FD39C024FFF5CFEDCF55
:100EA0002091770123FFF0CF24FDE7CFCDCF209114
:100EB000770123FD2EC03091780131FFEECF84EE13
:100EC00090E008952091770125FFDECFC9CF2091D2
:100ED000770125FD21C02091780123FFD5CF89E33B
:100EE00090E0D2CF2091770126FFCECF8AE290E02A
:100EF00008952091770126FFC7CF81E390E0089500
:100F000083EE90E0089582EE90E0089580EE90E008
:100F1000089586EE90E0089585E390E00895672BAC
:100F200039F4811108C0EEE2F1E0859194910895C1
:100F300080E090E0089581E0FCCF1F93CF93DF9392
:100F40000E94ED06EC01C11582E5D80708F03FC00C
:100F5000C11590E5D90708F0C2C0C83ED105C0F45C
:100F6000C03ED10580F4C53AD10548F4C430D1055E
:100F700050F4C130D10539F0D0E0C0E004C0CD3C20
:100F8000D105D0F3D065CE01DF91CF911F910895A7
:100F9000C11580E4D80708F053C0C11590E2D90705
:100FA00008F0B7C0C11581E0D80730F38D2F0E943B
:100FB000AA06182FCE0199270E94ED06C12FD0E076
:100FC000DC2FCC27CC27DF71C82BD92BDCCFC03846
:100FD00092E5D907A8F4C03682E5D80708F063C0C7
:100FE000C03492E5D90708F049C0C03282E5D8077D
:100FF00088F1CF71D0E0DC2FCC27C16FD06AC3CF8E
:10100000C03C92E5D90780F48C2F8F71C03AD2454D
:1010100008F45EC00E94AA06C82FD0E0DC2FCC27BF
:10102000CC27DF71D062AFCFC03E82E5D80708F091
:10103000A3CFDC2FCC27CC27DF71C06FD06AA3CF22
:10104000CE0199270E94ED06CC27DF70C82BD92B43
:10105000D06A99CF2C2F2695269590E2299F900152
:1010600011248C2F8370C1E0D0E002C0CC0FDD1FB3
:101070008A95E2F7C22BD32BDD6885CF2C2F2695DE
:101080002695277080E2289F900111248C2F837071
:10109000C1E0D0E002C0CC0FDD1F8A95E2F7C22B81
:1010A000D32BDC6870CF2C2F26952695277090E2E5
:1010B000299F900111248C2F8370C1E0D0E002C0E1
:1010C000CC0FDD1F8A95E2F7C22BD32BDA685BCFFA
:1010D000C82FD0E0DC2FCC27C46FD06A54CF8C2F20
:1010E0008F710E94AA0655E0D695C7955A95E1F7EB
:1010F000CF70D0E0DC2FCC27282F30E084FF05C054
:1011000044E0220F331F4A95E1F7C22BD32BD0695D
:101110003ACF8D2F8F710E94AA06182FCE019927E2
:101120000E94ED06C12FD0E0DC2FCC27CC27DF7149
:10113000C82BD92B77CF809590916C0198239093F1
:101140006C0108958091A90390917003981301C0D8
:1011500008958F5F8770FACFB0E0A0E0E2EBF8E08F
:101160000C94EF1F7C010091750110917601809124
:101170006D0190916E01082B192BCFE0D0E0CC24AB
:10118000C394D12CBC2EC6010C2E02C0880F991F0F
:101190000A94E2F780239123892B49F4219790F751
:1011A000B12C8B2DCDB7DEB7E9E00C940B20B70145
:1011B0008C2F0E948F070E949D07019779F3F1CF32
:1011C000CF93DF93EC010E94AC08BE010E948F0711
:1011D0000E949D07DF91CF910895892BA9F4EEE538
:1011E000F1E030E020E09191492F417050E0BA01E8
:1011F000022E01C0660F0A94EAF7862B2F5F3F4F3D
:101200002430310581F7089580E00895892BB1F4E9
:10121000EEE5F1E090E080E070E02191DF011197D0
:10122000AB01082E02C0569547950A94E2F740FBA1
:1012300020F92C9301968430910579F708959093C5
:10124000760180937501089521E030E002C0220FFD
:10125000331F8A95E2F72095309580917501909122
:101260007601822393230E941F09089590916201C1
:101270008095892380936201282F277069F489174C
:1012800059F09091780192FF07C0869586958695D2
:101290000E94240910926201089521E030E002C00A
:1012A000220F331F8A95E2F78091750190917601A4
:1012B000822B932B0E941F09089590936E018093B7
:1012C0006D010895FC0124812223C1F08081918168
:1012D0000E94E00892959F70963091F058F4925FCA
:1012E0009F70923058F4803F19F030F4883E30F40B
:1012F00081E008959A5FF4CF843FD1F380E00895B0
:10130000883EB0F3813FD1F7F3CFA6E0B0E0EBE841
:10131000F9E00C94F51F49835A8349815A81992336
:10132000A1F0222391F0CA010E94AC08182F682F67
:1013300089819A810E94060969817A81812F0E94A0
:101340008F072696E3E00C941120CA010E94ED0855
:10135000182FF2CFCF93DF93682F81E06A3019F016
:101360006D3031F480E00E94380ADF91CF9108950A
:101370008091B6059091B70526E0FC01A0EBB5E0A1
:1013800001900D922A95E1F7603E08F458C026E0DE
:10139000FC0111922A95E9F7C091B605D091B705E5
:1013A00046E050E0BE0180EB95E00E9482209E0165
:1013B000205B3340892B41F1C90145E09695879523
:1013C0004A95E1F741E050E0BA0102C0660F771F8D
:1013D0008A95E2F7CB016091AE037091AF03862B43
:1013E000972BB9016B5F7F4FE5E076956795EA959E
:1013F000E1F702C0440F551F6A95E2F7842B952B45
:101400009093AF038093AE032A5F3F4F4091AD03AB
:10141000642F70E0C9010E94D21F481B463010F4AF
:10142000240F311D211572E0370710F030E020E065
:1014300020553C4F3093B7052093B60596CFF6E084
:101440006F9FB001112464527C4F46E050E00E942F
:101450007920A2CFCF93DF93EC01FE01849181111B
:1014600003C0DF91CF9108950E94AA092196F5CF7C
:10147000CF93382FE091B605F091B705E05BF340CC
:101480002091AD03622F70E0CF010E94D21F281B74
:10149000822F332361F066E00E941D20C82FC150C7
:1014A00010F4CF91089580E20E94AA09F8CF9F011D
:1014B000280F311D2115324018F080E0F0E0E0E007
:1014C0008E0F9F2F911D80559C4F9093B705809351
:1014D000B605E7CF80916C0190916F03892B8093C3
:1014E000540190916B01992391F0892B80935401C1
:1014F00020E086E591E0FC013191CF0131112F5FB1
:10150000F1E08C359F07B9F7211110926B0148E08B
:1015100050E063E671E084E591E00E948220892B2F
:10152000A9F088E0E4E5F1E0A3E6B1E001900D92D6
:101530008A95E1F7E0914A03F0914B03309731F03F
:101540000280F381E02D84E591E0099508951092E1
:101550006C01E6E5F1E086E0DF011D928A95E9F78E
:1015600010926F030E946A0A0895AAE2B0E0EBEBC2
:10157000FAE00C94F51F8FE593E02091F100FC0157
:101580002193CF01F3E087369F07B9F7809160037D
:10159000833009F470C0B8F4813009F447C0823058
:1015A00009F4B1C08091E80083FF64C280915F03B9
:1015B000909160039A3008F05DC2E92FF0E0EB559E
:1015C000FB4D0C943D208A3009F48CC08B3009F41B
:1015D0006FC0893039F780915F03813219F78091AC
:1015E000630390916403892BE9F68091E800877F7B
:1015F0008093E8008091E80082FF38C09091F3006A
:101600008091F200029731F48091F100813011F065
:10161000863021F48091F100809353038091E8009B
:101620008B778093E8000E94C605BCCF80915F0352
:10163000813A09F0B7CF8091E800877F8093E80076
:101640008091630390916403892B61F468E084E5E1
:1016500093E070E00E94E5058091E8008B7780932D
:10166000E800A0CF60E090E080E0F3CF80916703D6
:101670008111C0CF97CF80915F03813A09F092CF5B
:101680008091630390916403892B09F08BCF809143
:10169000E800877F8093E8008091E80080FFFCCF1E
:1016A000809113018093F1008091E8008E77B9CF8B
:1016B00080915F03813209F075CF8091630390912F
:1016C0006403892B09F06ECF8091E800877F8093B7
:1016D000E8000E94C60580916103809313010E9477
:1016E000A70A60CF80915F03813209F05BCF8091C0
:1016F000E800877F8093E8000E94C605809162031E
:10170000809352034FCF80915F03813A09F04ACF13
:101710008091E800877F8093E8008091E80080FF57
:10172000FCCF80915203BECF803899F0823809F007
:10173000A1C1809163038F70873008F09BC18093B3
:10174000E9008091EB0085FB882780F91092E90081
:1017500006C080915C0390915D039111826090912D
:10176000E800977F9093E8008093F1001092F100D9
:101770008091E8008E777AC1882309F468C18230AD
:1017800009F078C18091610381116BC1809163037D
:101790008F702FEF280F263008F06CC18093E9007E
:1017A0002091EB0020FF5DC1933031F48091EB007C
:1017B00080628093EB0055C19091EB009061909313
:1017C000EB0021E030E001C0220F8A95EAF7209378
:1017D000EA001092EA008091EB008860EACF811164
:1017E00049C1109161031F778091E3008078812BBC
:1017F0008093E3008091E800877F8093E8000E9457
:10180000C6058091E80080FFFCCF8091E3008068EE
:101810008093E30082E0111183E0809367032AC183
:101820008058823008F026C1809161039091620354
:101830008C3D23E09207A1F583E08A838AE28983C5
:101840004FB7F894DE01139620E03EE051E2E32F1B
:10185000F0E050935700E49120FF03C0E295EF7051
:101860003F5FEF708E2F90E0EA30C0F0C7968D9307
:101870009D932F5F243159F74FBF8091E800877FF8
:101880008093E8006AE270E0CE0101960E94E505CF
:101890008091E8008B778093E800ECC0C096E7CF9A
:1018A0004091630350916403292F3327233031057E
:1018B00009F43FC078F52130310509F466C082E2B1
:1018C00090E0E8E7F3E02230310509F0D3C0209141
:1018D000E800277F2093E80020916503309166039C
:1018E0008217930708F49C0140E02115310509F0A7
:1018F00051C041114FC08091E80082FDC9CF809155
:101900006703882329F2853019F28091E80083FF6C
:10191000F2CFBECF2132310581F12232310509F0FB
:10192000A9C0452B09F0A6C080E490E0E8E3F3E00D
:10193000CECF992781309105C1F0009759F00297D9
:1019400009F098C0ECEAF3E0E4918E2F90E0ECEA25
:10195000F3E007C0E8EDF3E0E4918E2F90E0E8EDCE
:10196000F3E0009709F0B3CF85C0E6ECF3E0E49133
:101970008E2F90E0E6ECF3E0F4CF452B09F07AC02F
:1019800089E090E0EAE8F3E0A2CF82E190E0EAE9C2
:10199000F3E09DCF80916703882309F479CF8530E8
:1019A00009F476CF8091E80083FD72CF8091E80042
:1019B00082FDA1CF8091E80080FF97CF9091F30046
:1019C0008091F2002115310519F08830910550F011
:1019D00041E0089709F040E08091E8008E7780931D
:1019E000E80083CF44914093F100319621503109B2
:1019F0000196E8CF8038F1F58091E800877F8093E9
:101A0000E80080915E038093F100B2CE811132C074
:101A100010916103123070F58091E800877F809308
:101A2000E80010935E030E94C605112311F084E0C4
:101A300005C08091E30087FDFACF81E080936703C2
:101A400061EC81E00E94EA048091670313C08091F9
:101A50006103813079F481E0933009F080E0809374
:101A60005D031092E9008091E800877F8093E80091
:101A70000E94C6058091E80083FF0AC08091E800BB
:101A8000877F8093E8008091EB0080628093EB0079
:101A9000AA96E3E00C941120882321F00E949B0871
:101AA0000E946A0A0895882339F090916C01982B5E
:101AB00090936C010E946A0A0895882391F09CEF2C
:101AC000980F913A78F4E6E5F1E09191891303C01B
:101AD000DF0111971C9291E0EC35F907B1F70E94F4
:101AE0006A0A089590E2980F9830D8F7877091E0CD
:101AF00001C0990F8A95EAF7892F0E949B08EFCFC2
:101B0000CF93C82F8823A9F08CEF8C0F813A00F572
:101B1000E6E5F1E0DF018D91C81769F081E0AC35B1
:101B2000B807C9F76C2F84E591E00E9465060E9412
:101B30006A0ACF9108958191C81303C0DF011197FC
:101B40001C9281E0EC35F807B1F70E946A0AEACFEF
:101B500080E28C0F883068F7C77021E030E001C068
:101B6000220FCA95EAF780916C01822B80936C0159
:101B7000DECF0F931F93CF93DF93EC01FC01019015
:101B80000020E9F78F0101501109C017D10740F07B
:101B900081E00E94380ADF91CF911F910F91089543
:101BA00089910E94AA09F1CF0F931F93CF93DF93DE
:101BB0008C0180916703843059F581E08093E900BE
:101BC0008FEF9091E800815095FD06C095ED9A95B4
:101BD000F1F700008111F5CF8091E80085FF18C072
:101BE0000E94950581110FC0C8E0D0E08091E80007
:101BF00085FD13C08091E8008E778093E8000E94F5
:101C00009505882399F38091E8008E778093E8000A
:101C1000DF91CF911F910F910895F80181918F016C
:101C20008093F100219711F7EECFCF93DF93EC0172
:101C30000E94D40D88E0FE01A4E5B3E001900D926E
:101C40008A95E1F7DF91CF91089580913C0380FF61
:101C500027C0259A35B13F7D25B120624FB7F89452
:101C600089E393E0FC015191CF0168E025B90000C0
:101C700000C057FF35B9550F000000C000C000C0BC
:101C800035B900C06A9591F7F3E08C339F0751F79F
:101C90004FBF8FE594E00197F1F700C00000089571
:101CA00010923A031092390310923B03D2CF0E9454
:101CB000A70A2FEF84E39CE0215080409040E1F799
:101CC00000C0000088E19AE00FB6F894A8958093D0
:101CD00060000FBE90936000FFCFB0E0A0E0E3E7AC
:101CE000FEE00C94F01F6C017B0164E670E088E775
:101CF0000E94EC1E8C01E601EC0CFD1C17FD0BC0D4
:101D0000FE01849164E670E00E94581F8C012196C8
:101D1000CE15DF0599F70E94CE1F81E00115110550
:101D200009F080E0CDB7DEB7E8E00C940C2080919C
:101D3000480390914903911103C091E089270895C8
:101D4000882369F062E070E086E393E00E946D0E04
:101D5000811103C080914803089510924803809137
:101D60004803EBCFCF93C091480380914903882368
:101D7000D1F00E945906605A75418F4F9F4F609372
:101D80004403709345038093460390934703C11126
:101D900008C062E070E084E393E00E946D0E811160
:101DA00005C0C09148038C2FCF91089581E08093A6
:101DB0004803F7CFB0E0A0E0E0EEFEE00C94EC1FAB
:101DC00049015A016B017C010E9492068401A40121
:101DD0006A2D7B2D88E090E00E94C52094014A2D59
:101DE0005B2DB601C70100E20E945E20622F84E2F3
:101DF00090E00E94B320CDB7DEB7ECE00C94082051
:101E0000B0E0A0E0E6E0FFE00C94EC1FD82FC62F76
:101E1000142F822E00913C0300FF29C0802F8E7F5B
:101E2000823071F4E42F423E08F0E1EEF0E0EC5C29
:101E3000FD4FC11121C02491F22FE22F00FD91C06E
:101E4000D0933D03C0933E0310933F03882079F065
:101E500020913C0360914003709141033D2F4C2F32
:101E6000512F80914203909143030E94DA0ECDB727
:101E7000DEB7ECE00C940820EC2EF12CE4919E2EC1
:101E8000CE2ED12C26E0D29FC00111242FEF30E0BE
:101E9000B9010E94D21F8D2F90E0880F991FF5E5A0
:101EA000F69FA001F79F500D1124841B950BB82EAF
:101EB000BB0CB80EA9014E195F094C9DC0014D9D88
:101EC000900D5C9D900D1124F92FCB9DA001112444
:101ED000452F5527D901A41BB50BAC9DA001AD9D85
:101EE000500DBC9D500D1124D901AB19B1095D01F4
:101EF000AE9CD001AF9CB00DBE9CB00D1124AB2F99
:101F0000BB272A1B3B0B2C9DD0012D9DB00D3C9D6A
:101F1000B00D11242B2F62307105A1F050F4611522
:101F2000710509F48BCF6130710581F0292FF52FF0
:101F300085CF6430710569F080F06630710509F471
:101F40007DCFF4CF2E2FE92FFB2F78CF2E2FE52F2B
:101F500075CF292FFE2FEB2F71CFE92FF92D252FCC
:101F60006DCFE0933A0320933903F0933B030E9433
:101F7000250E66CFECE3F3E0438121E1421B08F438
:101F800040E021E0628181810E94000F0895ECE32E
:101F9000F3E0438121E1420F08F44FEF21E0628139
:101FA00081810E94000F0895ECE3F3E0628121E15A
:101FB000621B08F460E021E0438181810E94000FF0
:101FC0000895ECE3F3E0628121E1620F08F46FEF22
:101FD00021E0438181810E94000F0895ECE3F3E04A
:101FE000818121E04381628188500E94000F089521
:101FF000ECE3F3E0818121E043816281885F0E940C
:10200000000F089580914003882319F08150809338
:10201000400320913C0330913D0340913E03509199
:102020003F0360914003709141038091420390917E
:1020300043030E94DA0E089580914003833018F420
:102040008F5F8093400320913C0330913D0340918A
:102050003E0350913F036091400370914103809192
:102060004203909143030E94DA0E089520913C03AD
:1020700020FF1FC02170226020933C03662381F063
:1020800030913D0340913E0350913F0360914003E6
:102090007091410380914203909143030E94DA0EB4
:1020A00020E040913F0360913E0380913D030E94F8
:1020B000000F089580913C038695815009F481E0DA
:1020C00061E00E943610089561E081E00E943610C0
:1020D0000895ECE3F3E083E0808311828FEF828345
:1020E00081EE83831482758123E030E04FEF51EE5F
:1020F00060E0868197810E94DA0E089590917801C0
:1021000092FB222720F9281779F080FB92F990930F
:102110007801609177017091780184E090E00E94ED
:10212000D12082E00E9436090895A8E0B0E0EBE9F2
:10213000F0E10C94F61F66EE7EEF90E080E00E94E6
:10214000D12060E082E090E00E94B32060E083E074
:1021500090E00E94B32010926E0110926D0160E039
:1021600074E184E090E00E94D12060E086E090E09D
:102170000E94B3206FEF87E090E00E94B32040E020
:1021800050E0BA0188E090E00E94C52060E084E25F
:1021900090E00E94B32060E087E190E00E94B320CD
:1021A00060E08CE090E00E94B32060E08DE090E081
:1021B0000E94B32019821A821B821C821D821E82F9
:1021C0001F82188648E050E068E170E0CE01019679
:1021D0000E94A32040E050E0BA0180E290E00E941B
:1021E000C52040E050E0BA018FE090E00E94C52099
:1021F00040E050E0BA0183E190E00E94C5202896BB
:10220000E2E00C9412201F920F920FB60F9211244D
:102210002F933F934F935F936F937F938F939F93EE
:10222000AF93BF93CF93DF93EF93FF93D091E900E8
:10223000DF708091EC00C82FC17080FDC0E8109263
:10224000E9008091F000877F8093F00078940E94ED
:10225000B50A1092E9008091F00088608093F00048
:10226000CD2BCF70C093E900FF91EF91DF91CF911B
:10227000BF91AF919F918F917F916F915F914F919E
:102280003F912F910F900FBE0F901F9018951F92A6
:102290000F920FB60F9211242F933F934F935F939A
:1022A0006F937F938F939F93AF93BF93EF93FF931E
:1022B0008091E10082FF09C08091E20082FF05C0A9
:1022C0008091E1008B7F8093E1008091DA0080FFB4
:1022D00024C08091D80080FF20C08091DA008E7FDA
:1022E0008093DA008091D90080FF9CC080E189BD95
:1022F00082E189BD09B400FEFDCF81E080936703D0
:1023000080915103811109C00E941C050E943B0568
:102310008091E20084608093E2008091E10080FF80
:1023200017C08091E20080FF13C08091E2008E7F91
:102330008093E2008091E20080618093E2008091CE
:10234000D80080628093D80019BC85E08093670331
:102350008091E10084FF2BC08091E20084FF27C0C0
:1023600080E189BD82E189BD89B5982F917080FF98
:10237000FBCF8091D8008F7D8093D8008091E100C1
:102380008F7E8093E1008091E2008F7E8093E20057
:102390008091E20081608093E20080915E03882357
:1023A00009F446C084E080936703809167038091BD
:1023B000E10083FF26C08091E20083FF22C080916C
:1023C000E100877F8093E10082E0809367031092B1
:1023D0005E038091E1008E7F8093E1008091E200B6
:1023E0008E7F8093E2008091E20080618093E20022
:1023F00060E080E00E94EA048091F00088608093B1
:10240000F000FF91EF91BF91AF919F918F917F91DC
:102410006F915F914F913F912F910F900FBE0F9051
:102420001F90189519BC109267031092510375CF35
:102430008091E30087FD93E090936703B6CF789493
:102440001F921FB61F9211248F939F93AF93BF9338
:1024500080914D0390914E03A0914F03B091500392
:102460000196A11DB11D80934D0390934E03A0933F
:102470004F03B0935003BF91AF919F918F911F90E5
:102480001FBE1F9018959C014FB7F89480914D0383
:1024900090914E03A0914F03B09150034FBF821B08
:1024A000930B08952FB7F89480914D0390914E03AC
:1024B000A0914F03B09150032FBF08950F931F9326
:1024C000CF93DF93C62FD42F022FFC018581882361
:1024D000A9F06093AC030E9452129093AB038093D7
:1024E000AA03C77081E001C0880FCA95EAF70E946D
:1024F000530DDF91CF911F910F9108958091AC03FF
:10250000681335C08091AA039091AB030E944312D7
:10251000883C910560F510E21D0FCD17B9F080E2FF
:102520008C0F883040F4C77081E001C0880FCA95D5
:10253000EAF70E944C0D183048F481E09D2F977007
:1025400001C0880F9A95EAF70E94530D802F0E94D0
:10255000800D802F0E945D0D183058F6D77081E0F5
:1025600001C0880FDA95EAF70E944C0DC2CFC77000
:1025700081E001C0880FCA95EAF7F6CFB0E0A0E08D
:10258000E4ECF2E10C94EE1F8C01FC0184818823C1
:1025900009F459C021E040815181628173819581A4
:1025A0000E948509EC018134FEE79F0769F5F80177
:1025B0008581882351F080917F0190E0019663E04E
:1025C00070E00E94292080937F01F8018581882393
:1025D00009F4F9C31092AC03CE019057839708F029
:1025E000DCC384E090E00E949D209093780180936A
:1025F0007701FE01E150F047E232F10508F03FC0FB
:10260000E155FB4D0C943D20FC01E851FC47E730BF
:10261000F105D8F6EF52FB4D0C943D2026E241EE39
:1026200061EEC8010E945E1280916201877059F0CC
:10263000F8018581882339F08091780182FF03C0F9
:1026400082E00E943609CDB7DEB7EAE00C940A209A
:1026500027E245EE65EEE5CF26E241EE60EEE1CF02
:1026600027E245EE64EEDDCF26E241EE62EED9CF01
:1026700027E245EE66EED5CF28E241E0EBCF809130
:10268000770181608093770195C08091780188609F
:10269000809378018FC0809177018260F3CF809121
:1026A00077018460EFCF809177018860EBCF8091D4
:1026B00078018160EDCF809178018260E9CF8091CF
:1026C00077018061DFCF809177018062DBCF8091DD
:1026D00077018064D7CF0E94A70A80917701806834
:1026E000D1CF809177018C60CDCF809178018360CC
:1026F000CFCF809177018E7FC5CF80917801877F82
:10270000C7CF809177018D7FBDCF809177018B7F7F
:10271000B9CF80917701877FB5CF809178018E7F87
:10272000B7CF809178018D7FB3CF809177018F7E75
:10273000A9CF809177018F7DA5CF809177018F7B85
:10274000A1CF0E94A70A809177018F779BCF8091BC
:102750007701837F97CF809178018C7F99CF80918B
:10276000770182FB992790F921E0922790FB82F96B
:1027700090FB83F987CF80917801982F9095917085
:102780008E7F892B90FB81F983CF90917701892FE0
:102790008F7B96FF806476CF0E94A70A9091770185
:1027A000892F97FB87F980586DCF61E08EE090E02C
:1027B0000E94B320609177017091780184E090E0ED
:1027C0000E94D1200E94A70A2FCF60E0EFCF909106
:1027D0007701892F8F7E94FF806154CF909177018C
:1027E000892F8E7F90FF81604DCF90917801892F46
:1027F000877F93FF88604CCF80915C0181110FC06F
:1028000089E2E6E5F1E02CE531E09191891303C01E
:10281000DF0111971C922E173F07B9F7D1C285E34C
:10282000F0CF80913C0380FF17C0282F2E7F20938C
:102830003C0330913D0340913E0350913F03609132
:1028400040037091410380914203909143030E94A1
:10285000DA0E0E94250EE8CE816080933C0361E091
:1028600086950E943610E0CE4AE550E164E670E1BC
:102870000E948C06D9CE44E650E16AE570E1F8CFBB
:102880004EEE5FE068EF7FE0F3CF48EF5FE06EEE83
:102890007FE0EECF44ED5FE061EE7FE0E9CF41EE17
:1028A0005FE064ED7FE0E4CF4AEB5FE067EC7FE060
:1028B000DFCF47EC5FE06AEB7FE0DACF42E050E148
:1028C0006CE170E1D5CF4CE150E162E070E1D0CF36
:1028D00061E081E0C6CF0E94A70AFFEF24E33CE05D
:1028E000F15020403040E1F700C000000E9448064F
:1028F0006FEF7FEF90E080E00E94D1200E94570EA2
:102900008091780182FB882780F991E089270E94D5
:102910007E10F8018581C081D181882309F44AC0E5
:10292000CE010E94AC08F82E682FCE010E94060945
:10293000BE018F2D0E948F070E949D07D82EC92FA0
:10294000A82EF801C580B680B2949FE0B92280918C
:1029500062018770F1F0FC2CCC20E1F08C2F807F9D
:10296000803451F080E28D0D883098F0B11004C0B1
:102970008C2F807E803269F08091780182FF09C0BF
:1029800082E00E943609809162018770FF24F394EF
:102990008111F12CEC2EE2948FE0E822FBE0FE1591
:1029A00008F46AC0EE2DF0E0E852FB4D0C943D2097
:1029B00080E0ADCFCE010E94ED08F82EB9CFDC2F1C
:1029C000DF70C07F11F0D295D07FCC20B9F0DD232D
:1029D00069F080E28D0D883010F0A11009C080915F
:1029E0006C01D82BD0936C010E946A0A8D2D42C0D5
:1029F00080916F03D82BD0936F03F6CF8D2D0E945B
:102A00005D0DDD23C9F180E28D0D883010F0A1103D
:102A100004C08D2F0E949B0806C0D09580916F0343
:102A2000D823D0936F030E946A0A26C0DC2FDF7080
:102A3000C07FC03211F0D295D07FAA2059F021E09A
:102A4000A21609F478C0CC2009F484C0BB2009F494
:102A500046C0CCCF8091780182FD3DC0CC20A9F149
:102A6000DD2339F080916C01D82BD0936C010E944A
:102A70006A0A80E00E94800DEE2DE850FF0B34972B
:102A800010F40E947F06FF20A9F08091620180FD72
:102A900011C0F80115828695869586950E944D098C
:102AA000C8010E94BE128091620186958695869526
:102AB0000E94240920E0F8014081518162817381E4
:102AC000848195810E948509BECD80E00E945D0DC4
:102AD000DD2391F29ECFCC20A1F0B11004C08D2F48
:102AE0000E94530DC9CF31E0B312C6CF80916B0164
:102AF0009D2F9823D91709F4BFCFD82BD0936B0102
:102B0000BBCFB110B9CF8D2F0E944C0D90916B01AE
:102B10008D2F892329F08D2F8095892380936B0138
:102B200080915D019D2F982309F4A6CFD095D823DD
:102B3000D0935D01A1CFCC2029F085E08B1508F45E
:102B40009BCFCDCF94E09B1508F496CF8D2F0E949C
:102B50004C0D92CFBB20D1F3E9E3AE1209C0FFEFD9
:102B600027EE33E0F15020403040E1F700C0000094
:102B70008D2D0E945D0D80CF8C2F837009F03FC09A
:102B8000C1107ACF4D2D429546954770440F440FA2
:102B90002D2D2F7030E0042E02C0220F331F0A9417
:102BA000E2F790E080E0D4FE09C08FE090E002C040
:102BB000880F991F4A95E2F780959095C695C6951E
:102BC000C370C23099F078F440916D0150916E015C
:102BD000C13039F0822B932B842395230E945D0909
:102BE0004BCF242B352B822B932BF8CF822B932B7F
:102BF00020916D0130916E0182279327EFCF86954A
:102C0000CC2011F08C2F8170882309F435CF4D2D05
:102C1000429546954770440F440F2D2D2F7030E09C
:102C2000042E02C0220F331F0A94E2F790E080E0E6
:102C3000D4FE09C08FE090E002C0880F991F4A952A
:102C4000E2F780959095C695C695C370C23099F00D
:102C500078F44091750150917601C13039F0822BA2
:102C6000932B842395230E941F0906CF242B352BF9
:102C7000822B932BF8CF822B932B209175013091CF
:102C8000760182279327EFCFCF70CC2029F08C2FAD
:102C90000E944D098D2D24CF8D2D0E944C0D8C2F1F
:102CA0000E942409E9CE8D2D92EFA91699F19A156B
:102CB00070F0E0EFAE16D1F0F1EFAF1691F0CC204E
:102CC00009F45BC0B11092CE8C2F8F7127C023EF17
:102CD000A21639F134EFA312F2CF8091780182FD70
:102CE0002EC08C2F8F71CC20D9F218C0CC2069F067
:102CF00084E08B1508F4C0CECF7181E090E002C073
:102D0000880F991FCA95E2F7B8CF95E09B1508F494
:102D1000B3CEF2CF8C2F8F71C110C2CF0E944D095C
:102D2000ABCE90E080E0CC2009F49DCFCF7181E064
:102D300090E002C0880F991FCA95E2F794CFCC208B
:102D400089F0CF718C2F0E944D098091780182FF0C
:102D500007C0E8E0CE9FC001112483608093620128
:102D60008C2FDCCF81E00E943609F1E0FB1508F0E2
:102D700083CE82E00E9436097FCEBB2059F0893392
:102D800009F0F6CE2FEF37EE83E02150304080403F
:102D9000E1F7ECCE8C2F8F7183CFC631FCE7DF07D4
:102DA00029F580916C018A7A91E009F490E0909382
:102DB0005C0169E2811165E384E591E00E946506AA
:102DC0000E946A0A31CCC6312CE7D20709F414CD2F
:102DD00080916C018272FE01E052F847E531F10505
:102DE00008F097CDEC51FB4D0C943D20C3303CE7EF
:102DF000D30709F47DCD50F4C1159CE7D90709F438
:102E00006ACDC130DC4709F479CD83CDCB35FCE701
:102E1000DF0709F4CDCDCC352CE7D20709F470CD0E
:102E2000CA35DC4709F075CD81E071CDCF93DF93D2
:102E300080916E03807F09F04DC080916D038823DF
:102E400009F448C0E091A90350917003C09169034F
:102E5000D091680360916A0370916B0347E05E173D
:102E6000C9F18E2F90E0E49FF0011124EF58FC4F40
:102E70002481222391F1489FF001499FF00D1124F4
:102E8000DF01AF58BC4F11962C9111972C1325C020
:102E90002C912D1322C015962C91159721111DC030
:102EA00012962D913C91261B370B283C3105A8F436
:102EB00080916E038F70806180936E03E958FC4FA0
:102EC00080818F708061808388E693E00E94BE12CB
:102ED0000E94A208DF91CF910895FC013196E7701E
:102EE000BECFA4E1B0E0E7E7F7E10C94EC1F8C0162
:102EF00086E0F801DE011F9601900D928A95E1F7B8
:102F0000F8018481E58098E6A92E93E0B92E90918E
:102F10006C03911128C0882319F1EE20F1F0C8014B
:102F20000E946209F82E8823C1F087E0F801D501DC
:102F300001900D928A95E1F780916C03813031F414
:102F400080916803909169030E94E0080E9416171F
:102F50008F2D6496ECE00C940820C8010E94BE12EC
:102F6000FF24F394F5CFD080C18082809380F090CD
:102F70006D0320916A0330916B03A401421B530B34
:102F8000FF2009F4D9C0483C510508F092C08823BD
:102F9000F9F29091690380916E03282F207F09F048
:102FA00056C0C91214C090916803D91210C0E11024
:102FB00048C08F70806180936E0388E693E00E9422
:102FC000BE1280916E03F8018683F12CC1CFE1100F
:102FD00038C06C2D8D2D0E94CB046C2D8D2D0E9440
:102FE000CB04E82E8111F1CFDF86C88A8F859889BE
:102FF0000E94E008292F22952F70243058F49F70EA
:10300000223088F0992399F0F8019681907F79F425
:10301000FE2C9ECF2A5F2F70223068F0C8010E94DC
:10302000BE12EF2CF5CF992311F0882389F3805E2F
:10303000883070F3F3CF803F58F3815F833070F7AF
:10304000E7CF80916E03816080936E03BECFC9127B
:1030500007C090916803D91203C0EE2009F48DC017
:10306000C8010E946209882309F477CFEE2009F491
:1030700074CF80916E03803288F020916803309184
:103080006903398728879B868A8690916C039C8781
:103090001D868E87CE0108960E94BE1287E0F80139
:1030A000A8E6B3E001900D928A95E1F70E94161709
:1030B00057CF90916E03292F207F51F488E693E03B
:1030C0000E94BE1287E0F50111928A95E9F77DCF43
:1030D000882309F43DCF809169038C1110C0809141
:1030E0006803D8120CC0E1100AC09683C8010E9480
:1030F000BE1287E0F50111928A95E9F729CFC80140
:103100000E946209882309F428CFEE2009F425CF14
:1031100080916E03803210F2209168033091690330
:103120003A8329839C828B8290916C039D831E82BB
:103130008F83CE010196B0CF483C5105D0F688234D
:1031400009F40ECFFE2CEE2009F407CF809169031D
:103150008C1120C080916803D8121CC080916E032E
:1031600080FD0FC0982F907F61F08683903F31F0F3
:10317000982F907F905F8F70892B8683C8010E9463
:10318000BE1287E0F801A8E6B3E001900D928A959F
:10319000E1F7DECEC8010E94620981117FCF8091E4
:1031A0006E03816080936E03C8010E94BE12D0CE70
:1031B000ABE1B0E0EEEDF8E10C94F41F4E8B5F8BC9
:1031C000688F798F8A8F9B8F192F911110926F03BF
:1031D0001D8A86E0FE017696DE011F9601900D9213
:1031E0008A95E1F70A8D002341F021E04F85588947
:1031F00069897A89C8010E9485090B8B1C8B87E03D
:10320000FE013F96DE01189601900D928A95E1F736
:10321000CE0108960E94711781110CC087E0FE0153
:103220003896DE01119601900D928A95E1F78C8512
:1032300081110BC017E08091A9039091700389134D
:1032400031C06B96E4E00C9410202091700330E0C4
:10325000C9010196877099274091A903481719065B
:1032600099F097E0929FD001939FB00D1124AF5831
:10327000BC4FFE01319601900D929A95E1F7809333
:1032800070030E94A208D6CF0E94A70A1092700372
:103290001092A90387E0E8E6F3E0DF011D928A952A
:1032A000E9F7C8CF819FC00111248F589C4F0E941D
:1032B0007117882331F28091A90390E001968770FD
:1032C00099278093A903B7CF83B190E0959587950F
:1032D0009595879580959095817099272091740197
:1032E0002817F9F08093740181E0809373010E94A4
:1032F00052129093720180937101809171019091AB
:1033000072010E944312059780F0809174019091A0
:103310007A01981761F080937A0181E0109273012D
:103320000895809173018111E8CF80E0089580E0D5
:10333000F5CFA6E0B0E0EFE9F9E10C94F41F0E94AC
:1033400052128C0180916F0190917001801791074A
:1033500081F019821A820E945212682F49815A8183
:10336000792F80E090E00E94D818109370010093AC
:103370006F012696E4E00C9410201F921FB61F9256
:1033800011248F939F93AF93BF9380914C0381112E
:1033900013C080914D0390914E03A0914F03B091C3
:1033A00050034196A11DB11D80934D0390934E0390
:1033B000A0934F03B0935003BF91AF919F918F9112
:1033C0001F901FBE1F90189500D000D000D00F9204
:1033D000CDB7DEB785B7806885BF85B7806885BF04
:1033E00084B7877F84BF0FB6F894A895809160005A
:1033F000886180936000109260000FBE80E890E0CA
:103400000FB6F89480936100909361000FBE88EA34
:1034100096E090935301809352010E941C050E94F4
:103420003B058091E20084608093E2007894809173
:1034300067038823A1F01091E9001F709091EC00C0
:10344000892F817090FD80E8182B1092E9008091FF
:10345000E80083FD0E94B50A1F701093E90082E026
:1034600084BD93E095BD9AEF97BD80936E0022983E
:103470002A9A10927A011092740190E080E00E94E2
:103480009D20863E9E4F11F00E94951082E090E0B4
:103490000E948F2080937B0184E090E00E949D2019
:1034A00090937801809377010E9464193FEF86E73B
:1034B00091E0315080409040E1F700C000000E9450
:1034C000641980917A0180FF08C06FEF7FEF90E070
:1034D00080E00E94D1200E94480683E090E00E9494
:1034E0008F2090E00E945D090E9452129093150374
:1034F0008093140310927D0182E08093360380E86C
:103500008093AD030E94E61E6BE070E087E491E0DB
:103510000E946D0E8823E9F18091360365E070E02A
:1035200081FD24C182E491E00E946D0E882389F11F
:103530006DE070E080E391E00E946D0E882349F118
:103540000E945906605A75418F4F9F4F6093440304
:10355000709345038093460390934703E0EBF3E0B9
:1035600080E092E0DF019C011D9221503040E1F7A4
:10357000F093B705E093B6058FEF9FEF9093AF03FD
:103580008093AE0381E080934903809348031092B7
:10359000370380917901811174C090E080E00E942E
:1035A0009D20863E9E4F21F00E9495100E9469103A
:1035B00088E090E00E9497204B015C0184E290E05B
:1035C0000E948F20282F30E040E050E060E070E063
:1035D00080E090E000E20E944320282939294A290E
:1035E0005B2920933C0330933D0340933E0350936B
:1035F0003F03609340037093410380934203909391
:1036000043032E7F89F50E94691088E090E00E94B4
:1036100097206B017C0184E290E00E948F20282F8C
:1036200030E040E050E060E070E080E090E00E9438
:103630004320B22FA32FF42FE52F5B0197018601C2
:10364000BC29A12BFE29E32BB0933C03A0933D039F
:10365000F0933E03E0933F0360934003B092410335
:1036600080934203909343030E94920680913C030F
:1036700080FF04C060E086950E94361081E0809350
:10368000790180E091E090934B0380934A0380910D
:103690006703853049F480916703853009F469C078
:1036A0000E94A70A0E947F060E94641980917C01F3
:1036B00010917A018113ABC00E9499191F828091E9
:1036C0004903882309F468C280E00E94B90480910C
:1036D0001403909115030E944312E4E1CE2EE3E01F
:1036E000DE2E00E811E08D3A9D4008F0D2C086E859
:1036F00080937A0080E880937B0087E480937C004D
:1037000080917A00806480937A0080917A0086FDAF
:10371000FCCF209178003091790080917A008F77EA
:1037200080937A00F0907D018F2D65E60E941D2028
:1037300084E0989F8001112400581E4FB901072E84
:10374000000C880B990B0E94FC21D8016D937D938E
:103750008D939C931397B5E6BF1510F410927D01DD
:1037600080917D018F5F80937D01F6C18DE391E0B3
:10377000DBCE80916703843031F10E94970E109266
:103780004C0388E190E0A0E40FB6F894A8958093EC
:1037900060000FBEA093600083B7817F846083BF09
:1037A00083B7816083BF7894889583B78E7F83BF0A
:1037B0000FB6F894A89580916000886180936000AE
:1037C000109260000FBE80915D03882309F463CFDF
:1037D0000E94641980917A01882309F45CCF20E16A
:1037E00029BD32E139BD09B400FEFDCF8091D8007A
:1037F0008F7D8093D8008091E00082608093E0000C
:103800008091E00081FDFCCF0E94A70A44CF812770
:1038100080FF11C019821A820E945212682F8B8376
:103820009C8381E08D83912F91709E8349815A8181
:103830007C810E94D81810937C010E945906B1E047
:10384000BF833DCFD8018D909D90AD90BC90F70186
:1038500041905190619071907F01A3019201C50147
:10386000B4010E94542187FF0CC0D8014D925D9293
:103870006D927C921397F701349780829182A28295
:10388000B382CE14DF04F1F60C5F1F4FC016D106D1
:1038900029F070E8E72E71E0F72ED4CF20E030E079
:1038A00040E85AE3609148027091490280914A02CF
:1038B00090914B020E94B12223E333E34BE950E4A1
:1038C0000E94B12220E030E040E251E40E94592100
:1038D0006B017C018090080190900901A0900A0181
:1038E000B0900B01AC019B01C501B4010E94E7201F
:1038F0002CE137EC41EB51E40E94B1229B01AC0179
:1039000060E070E080E291E40E941E2320E030E05D
:1039100048EC53E40E94B1222B013C0120E030E04E
:1039200048EC53E40E94542187FF18C02FE632E18F
:1039300043E05BE3C501B4010E94E8209B01AC01B8
:10394000C701B6010E94AC2287FD08C0C0920801E1
:10395000D0920901E0920A01F0920B0120E030EED2
:103960004AE056E4C301B2010E94AC2218163CF4AE
:10397000412C60EE562E6AE0662E66E4762EC30178
:10398000B2010E94CB219B01CB0168EE73E00E9443
:10399000D21F062FE4E6F0E0BF010E94D21F7B0198
:1039A000C901BF010E94D21FEAE0F0E0BF010E94FE
:1039B000D21F4B01C901BF010E94D21F1C0101117E
:1039C00001C00AE080E00E94B904B4E10B9F8001CD
:1039D0001124C801885A9E4F0E942A0AE4E1EE9DF4
:1039E0005001EF9DB00C1124C501885A9E4F0E94D2
:1039F0002A0AF4E1F89D6001F99DD00C1124C6015A
:103A0000885A9E4F0E942A0A24E1229D7001239D1C
:103A1000F00C1124C701885A9E4F0E942A0A81E0A7
:103A20000E94B904C801835A9E4F0E942A0AC50108
:103A3000835A9E4F0E942A0AC601835A9E4F0E94B3
:103A40002A0AC701835A9E4F0E942A0A82E00E94D6
:103A5000B904C8018E599E4F0E942A0AC5018E5989
:103A60009E4F0E942A0AC6018E599E4F0E942A0A22
:103A7000C7018E599E4F0E942A0A83E00E94B90412
:103A8000C80189599E4F0E942A0AC50189599E4F33
:103A90000E942A0AC60189599E4F0E942A0AC7011C
:103AA00089599E4F0E942A0A82E591E00E942A0AC3
:103AB00083E00E94B90480917F0181117FC020E0E2
:103AC00030E04AEF54E4C301B2010E94AC2287FF08
:103AD00073C020E030E048EC53E4C301B2010E941F
:103AE000E72020E030E046E153E40E94B12220E0EC
:103AF00030E048EC54E40E9459219B01AC0160E0A5
:103B000070E086E193E40E94E7200E94CB21862F9B
:103B100021E048EC6FEF0E94000F90917E018091B0
:103B20007F01981741F084E191E00E94B90D8091E6
:103B30007F0180937E018FB7F89410924D0310920D
:103B40004E0310924F03109250038FBF0E945212E7
:103B500090931503809314038091AE039091AF036B
:103B6000892B09F058C0809148038823A9F00E944E
:103B7000590600914403109145032091460330916A
:103B80004703601B710B820B930B6F3F7F4F8F4F6F
:103B90009F4710F40E94970EFF81F1110E94B20E10
:103BA0000E947F0690913803891709F470CD8093A5
:103BB00038030E9459066BCD80E0AACF8130D9F43A
:103BC00020E030E04AEF54E4C301B2010E945421E6
:103BD00021E040E018160CF448EC6FEF8FEF0E94E4
:103BE000000F90917E0180917F01981709F4A3CF77
:103BF00088E291E09ACF21E040E06FEF8FEF0E94E2
:103C0000000F90917E0180917F01981709F493CF66
:103C10008CE391E08ACF80914903882309F4A3CFF4
:103C20008091370381119FCF0E94B20E2091AE0385
:103C30003091AF032115310509F495CF80E0082FAD
:103C400010E0EE24E394F12C082E02C0EE0CFF1CD1
:103C50000A94E2F7A70142235323452B11F48F5F07
:103C6000EECF9091360390FF98C0880F880F880F91
:103C700080930E0110921101895F80930F0183E000
:103C80008093120124E630E047E050E06CE071E000
:103C900088E70E94861F892B09F065CFA80135E0CF
:103CA000440F551F3A95E1F78091360380FF87C096
:103CB00080E2E6E1F3E011928A95E9F78EE4282E9E
:103CC00081E0382E0AE411E092E5492E91E0592E68
:103CD00027E0A22ED1012D911D01F80161908F01E5
:103CE000640E752E711CC30180559C4F3C01E22F60
:103CF000F0E0EA5EFC4F30E020E08A2C821ABB2420
:103D0000B394022E01C0BB0C0A94EAF7630190E061
:103D1000D6018D916D018B21682D691B6770962EE0
:103D2000062E000C770BB82F01C0BB0F9A94EAF750
:103D30009B2E7195619571096770772701C08695F3
:103D40006A95EAF7982A8081982A90829F5F983036
:103D5000F9F62F5F3F4F31962830310571F6421446
:103D6000530409F0B7CF04E610E020E230E046E16A
:103D700053E060E488E70E94A71F892B09F0F3CE87
:103D8000E094F0948091AE039091AF03E822F92281
:103D9000F092AF03E092AE03E6CE8295880F807674
:103DA00080930E0198013695279536952795209397
:103DB0001101815E80930F012093120163CF405562
:103DC0005C4F04E610E020E230E0D3CF1092B9005F
:103DD0008CE08093B8000895B0E0A0E0E2EFFEE14F
:103DE0000C94ED1FB82EEB010E9452126C01EE24D0
:103DF000E394F12CC431D10560F025E0E22EF12CE2
:103E0000CF3FDC0731F0CE0164E170E00E94D21FA9
:103E10007B0184EAA82E94E8992E1092BC00A0920F
:103E2000BC000E9452128C018091BC0087FF0DC023
:103E30008091B900887F8830F9F08091B900887F3F
:103E40008031D1F00FEF1FEF08C0C8010E9443126C
:103E5000E816F90648F70EEF1FEFCF3FDC07E9F24F
:103E6000C6010E944312C817D907B8F6C801CDB7DA
:103E7000DEB7EBE00C940920B092BB009092BC003E
:103E80000E9452128C018091BC0087FF0AC0809171
:103E9000B900887F883111F08034A1F610E000E08D
:103EA000E5CFC8010E944312E816F90660F7D3CFA8
:103EB0000F931F93CF93DF93EB018093BB0084E8B4
:103EC0008093BC000E9452128C018091BC0087FF3D
:103ED00011C02091B900287F81E090E0283211F4D0
:103EE00090E080E0919581959109DF91CF911F91AC
:103EF0000F910895CF3FDC0741F3C8010E944312A0
:103F0000C817D90710F78EEF9FEFEFCFB0E0A0E012
:103F1000ECE8FFE10C94F01F6B018A017901B90113
:103F20000E94EC1EE6010C0D1D1DC017D10711F0FB
:103F300097FF08C024E92093BC00CDB7DEB7E8E0C6
:103F40000C940C20B70189910E94581FEECFB0E06D
:103F5000A0E0EDEAFFE10C94F01FC62F6A017901A1
:103F6000B8010E94EC1E97FD0CC0B8018C2F0E9476
:103F7000581FE601EC0CFD1CCE15DF0511F097FF74
:103F800008C024E92093BC00CDB7DEB7E8E00C946C
:103F90000C20B80189910E94581FEECF84E98093CC
:103FA000BC000895AA1BBB1B51E107C0AA1FBB1F81
:103FB000A617B70710F0A61BB70B881F991F5A95B5
:103FC000A9F780959095BC01CD0108952F923F925D
:103FD0004F925F926F927F928F929F92AF92BF9219
:103FE000CF92DF92EF92FF920F931F93CF93DF93C5
:103FF000CDB7DEB7CA1BDB0B0FB6F894DEBF0FBE22
:10400000CDBF09942A88398848885F846E847D846E
:104010008C849B84AA84B984C884DF80EE80FD8070
:104020000C811B81AA81B981CE0FD11D0FB6F894E6
:10403000DEBF0FBECDBFED010895991B79E004C02E
:10404000991F961708F0961B881F7A95C9F78095D7
:10405000089597FB072E16F4009407D077FD09D03A
:104060000E94D21F07FC05D03EF4909581959F4F8A
:104070000895709561957F4F0895EE0FFF1F05908D
:10408000F491E02D0994002E083090F0982F872F9E
:10409000762F652F542F432F322F22270850F4CF2D
:1040A000220F331F441F551F661F771F881F991F3C
:1040B0000A95B2F7002D089597FD1094002E083050
:1040C00098F00850232F342F452F562F672F782F25
:1040D000892F912DF4CF15949795879577956795AE
:1040E00057954795379527950A95AAF71124002DDE
:1040F0000895FB01DC0102C005900D924150504033
:10410000D8F70895FB01DC0104C08D91019080195E
:1041100021F441505040C8F7881B990B0895F99934
:10412000FECF92BD81BDF89A992780B50895A6E18A
:10413000B0E044E050E00C94D920A8E1B0E042E0C7
:1041400050E00C94D920DC01A40FB51F4150504021
:1041500048F0CB01840F951F2E910E94B42041504E
:104160005040D0F70895262FF999FECF92BD81BD1A
:10417000F89A019700B4021639F01FBA20BD0FB6A5
:10418000F894FA9AF99A0FBE08950396272F0E9481
:10419000B4200E94B320252F0E94B420242F0C9419
:1041A000B4200196272F0E94B4200C94B320DC0188
:1041B000CB01FC01F999FECF06C0F2BDE1BDF89A32
:1041C000319600B40D9241505040B8F708955058C0
:1041D000BB27AA270E94FF200C9472220E9464220F
:1041E00038F00E946B2220F039F49F3F19F426F436
:1041F0000C9461220EF4E095E7FB0C945B22E92F0E
:104200000E94832258F3BA17620773078407950741
:1042100020F079F4A6F50C94A5220EF4E0950B2E6F
:10422000BA2FA02D0B01B90190010C01CA01A00108
:104230001124FF27591B99F0593F50F4503E68F163
:104240001A16F040A22F232F342F4427585FF3CFA4
:10425000469537952795A795F0405395C9F77EF475
:104260001F16BA0B620B730B840BBAF09150A1F0BE
:10427000FF0FBB1F661F771F881FC2F70EC0BA0F44
:10428000621F731F841F48F4879577956795B795CC
:10429000F7959E3F08F0B0CF9395880F08F09927C7
:1042A000EE0F9795879508950E94372208F481E0D4
:1042B00008950E946D210C9472220E946B2258F086
:1042C0000E94642240F029F45F3F29F00C945B22A5
:1042D00051110C94A6220C9461220E94832268F34F
:1042E0009923B1F3552391F3951B550BBB27AA27AF
:1042F00062177307840738F09F5F5F4F220F331FE9
:10430000441FAA1FA9F335D00E2E3AF0E0E832D0B0
:1043100091505040E695001CCAF72BD0FE2F29D0B3
:10432000660F771F881FBB1F261737074807AB0785
:10433000B0E809F0BB0B802DBF01FF2793585F4FFA
:104340003AF09E3F510578F00C945B220C94A62223
:104350005F3FE4F3983ED4F3869577956795B795DC
:10436000F7959F5FC9F7880F911D9695879597F9E7
:104370000895E1E0660F771F881FBB1F6217730760
:104380008407BA0720F0621B730B840BBA0BEE1F75
:1043900088F7E09508950E948B2288F09F5798F047
:1043A000B92F9927B751B0F0E1F0660F771F881F3A
:1043B000991F1AF0BA95C9F714C0B13091F00E9454
:1043C000A522B1E008950C94A522672F782F8827A5
:1043D000B85F39F0B93FCCF3869577956795B3957B
:1043E000D9F73EF490958095709561957F4F8F4FEA
:1043F0009F4F0895E89409C097FB3EF490958095EF
:10440000709561957F4F8F4F9F4F9923A9F0F92F9A
:1044100096E9BB279395F695879577956795B79518
:10442000F111F8CFFAF4BB0F11F460FF1BC06F5FFE
:104430007F4F8F4F9F4F16C0882311F096E911C010
:10444000772321F09EE8872F762F05C0662371F031
:1044500096E8862F70E060E02AF09A95660F771F45
:10446000881FDAF7880F9695879597F90895990F21
:104470000008550FAA0BE0E8FEEF16161706E8072E
:10448000F907C0F012161306E407F50798F0621B4F
:10449000730B840B950B39F40A2661F0232B242B24
:1044A000252B21F408950A2609F4A140A6958FEF43
:1044B000811D811D089597F99F6780E870E060E095
:1044C00008959FEF80EC089500240A9416161706AD
:1044D00018060906089500240A94121613061406F5
:1044E00005060895092E0394000C11F4882352F058
:1044F000BB0F40F4BF2B11F460FF04C06F5F7F4F10
:104500008F4F9F4F089557FD9058440F551F59F0F6
:104510005F3F71F04795880F97FB991F61F09F3FB0
:1045200079F087950895121613061406551FF2CFD9
:104530004695F1DF08C0161617061806991FF1CF29
:1045400086957105610508940895E894BB27662750
:104550007727CB0197F908950E94372208F48FEF4F
:1045600008950E94C4220C9472220E94642238F0A2
:104570000E946B2220F0952311F00C945B220C9486
:10458000612211240C94A6220E94832270F3959F2D
:10459000C1F3950F50E0551F629FF001729FBB273A
:1045A000F00DB11D639FAA27F00DB11DAA1F649FD6
:1045B0006627B00DA11D661F829F2227B00DA11D89
:1045C000621F739FB00DA11D621F839FA00D611D0F
:1045D000221F749F3327A00D611D231F849F600D30
:1045E000211D822F762F6A2F11249F5750409AF059
:1045F000F1F088234AF0EE0FFF1FBB1F661F771FE5
:10460000881F91505040A9F79E3F510580F00C94AF
:104610005B220C94A6225F3FE4F3983ED4F3869588
:1046200077956795B795F795E7959F5FC1F7FE2B4F
:10463000880F911D9695879597F90895FA01EE0FC9
:10464000FF1F309621053105A1F16115710561F457
:104650008038BFE39B0749F168949038810561F089
:104660008038BFEF9B0741F099234AF5FF3FE105F2
:104670003105210519F1E8940894E795D901AA2399
:1046800029F4AB2FBE2FF85FD0F310C0FF5F70F49A
:10469000A695E0F7F73950F019F0FF3A38F49F7714
:1046A0009F930DD00F9007FC9058089546F00C94FE
:1046B000612260E070E080E89FE308954FE79F7714
:1046C0005F934F933F932F930E9419242F913F9113
:1046D0004F915F910E94B1220C94762329F416F039
:1046E0000C945B220C94A5220C9461220E948B22D4
:1046F000A8F39638A0F707F80F92E8942BE33AEA6C
:1047000048EB5FE70E94C7220F920F920F924DB7BE
:104710005EB70F920E946124ECEAF0E00E94A823A9
:104720004F915F91EF91FF91E595EE1FFF1F49F0CB
:10473000FE57E0684427EE0F441FFA95E1F74195D4
:10474000550B0E94DB230F9007FE0C94CF23089596
:10475000DF93CF931F930F93FF92EF92DF927B0132
:104760008C01689406C0DA2EEF010E94C422FE017B
:10477000E894A5912591359145915591A6F3EF01C6
:104780000E94FF20FE019701A801DA9469F7DF90EB
:10479000EF90FF900F911F91CF91DF9108959B01B2
:1047A000AC0160E070E080E89FE30C9459210C9428
:1047B0005B220C9495240E948B22D8F39923C9F391
:1047C000940F511DA3F39150504094F059F0882359
:1047D00032F0660F771F881F91505040C1F79E3FFF
:1047E00051052CF7880F911D9695879597F9089597
:1047F0005F3FACF0983E9CF0BB2786957795679518
:10480000B79508F4B1609395C1F7BB0F58F711F451
:1048100060FFE8CF6F5F7F4F8F4F9F4FE3CF0C94C8
:10482000A62216F00C9495240C94612268940C94A2
:104830005B220E948B22A8F39923C1F3AEF3DF938E
:10484000CF931F930F93FF92C92FDD2788232AF060
:104850002197660F771F881FDAF720E030E040E8E5
:104860005FEB9FE3883920F0803E38F021968F7708
:104870000E94E820E4EDF0E004C00E94E820E1E0BE
:10488000F1E00E94A8238B01BE01EC01FB2E6F57C3
:1048900071097595771F880B990B0E94FC2128E1FF
:1048A00032E741E35FE30E94C422AF2D9801AE01DD
:1048B000FF900F911F91CF91DF910E94FF200C94E8
:1048C0007222FA01DC01AA0FBB1F9B01AC01BF578A
:1048D00028F4222733274427507820C0B75190F47A
:1048E000AB2F0024469537952795011CA395D2F34D
:1048F000002071F0220F331F441FB395DAF30ED05E
:104900000C94E72061307105A0E88A07B94630F4BD
:104910009B01AC016627772788279078309621F095
:10492000208331834283538308959F3F31F0915018
:1049300020F4879577956795B795880F911D969583
:10494000879597F90895F894FFCF940BBC0B3A0D17
:10495000BC0B3A0DEF0B100C3A0DFA0C060D791347
:10496000EE1381134B134F138513531389139513B0
:104970005F13E7136313991367139D13C5136B1329
:10498000A113CC137113A713AF1357138D135B131C
:1049900091137513AB13BB13D513E51345137D1397
:1049A000F5132C1330130E132813341338133C1340
:1049B000DF14DF14161516153C153C153C153C1577
:1049C000BC15441653165316111434143B144014DA
:1049D00045144A144F14541459145E146314681483
:1049E000141314131413141314131413141314138F
:0249F00014139E
:1049F2004506150E43064406CDCC4C3E0021007FF1
:104A0200220003014C49474854494E473A20475235
:104A120041444154494F4E004C49474854494E473E
:104A22003A205448524553484F4C44004C49474859
:104A320054494E473A204F464600000810181810B5
:024A420008006A
:00000001FF
